:020000040800F2
:10000000C8060020A5010008AB240008FD23000855
:10001000A9240008351A0008452600080000000041
:10002000000000000000000000000000AF240008F5
:10003000371A000800000000AD240008B1240008B1
:10004000BF010008BF010008BF010008BF01000890
:10005000BF010008BF010008BF010008BF01000880
:10006000BF010008BF010008BF010008BF01000870
:10007000BF010008BF010008BF010008BF01000860
:10008000BF010008BF010008BF010008BF01000850
:10009000BF010008BF010008BF010008BF01000840
:1000A000BF010008BF010008BF010008BF01000830
:1000B000BF010008BF010008BF010008BF01000820
:1000C000BF010008BF010008BF010008BF01000810
:1000D000BF010008BF010008BF010008BF01000800
:1000E000BF010008BF010008BF01000800F002F8CE
:1000F00000F048F80AA090E8000C82448344AAF17A
:100100000107DA4501D100F03DF8AFF2090EBAE877
:100110000F0013F0010F18BFFB1A43F0010318473B
:10012000A8300000C8300000103A24BF78C878C159
:10013000FAD8520724BF30C830C144BF04680C60ED
:10014000704700000023002400250026103A28BF35
:1001500078C1FBD8520728BF30C148BF0B60704739
:100160001FB500F097FB04000020002102F004FC02
:10017000401C60600020002102F0E8FBE0601FBD31
:1001800010B510BD00F0C8FD1146FFF7E9FF02F001
:100190006DFB01F019F803B4FFF7F2FF03BC01F0A7
:1001A0007FF800000948804709480047FEE7FEE75E
:1001B000FEE7FEE7FEE7FEE7FEE7FEE7FEE7FEE717
:1001C00004480549054A064B7047000013250008FE
:1001D000ED000008C8000020C8060020C80200206A
:1001E000C80200200FB400B58DB010A9099000918D
:1001F0000B904FF0FF300A9000200C900648784496
:100200000690064878446A4607900F9909A800F0BE
:10021000BFFA0DB05DF814FBAF050000C705000084
:100220004FF0000200B5134694469646203922BF8F
:10023000A0E80C50A0E80C50B1F12001BFF4F7AFDA
:10024000090728BFA0E80C5048BF0CC05DF804EBBC
:10025000890028BF40F8042B08BF704748BF20F82A
:10026000022B11F0804F18BF00F8012B7047704728
:100270007047704710B500F011FB006810BD10B555
:10028000044600F00BFB046010BD00002DE9FF4F99
:1002900006468BB00878FF2806D0491C2D2805D0CB
:1002A00000244FF0000908E000200CE00124F8E7EA
:1002B00009EB8903491C00EB43090878FF28F7D1B3
:1002C00014B1C9F100008146107800252C46AA46D9
:1002D00029462D2801D02B2804D1521C2D2813D0BB
:1002E000002082468B461078FF280FD04FF0000C7C
:1002F0000A21521CA5FB017804FB018105FB0C11AE
:10030000C5194BEB0104EEE70120EAE7002108469E
:100310004FF00000BAF1000F02D000EB800040085F
:10032000C0F38157012F01DD4FF0FF370E9955EAD9
:10033000040009EB01080BD04FF0020918F5FA7F11
:1003400016DA4FEACA70002F706008DD012007E05E
:100350004FEACA70C6E900B00FB0BDE8F08F0020C8
:10036000306000F09BFAC0F800901821084616E0B3
:10037000B8F5FA7F18DD002F02DAF748784401E07B
:10038000F6487844D0E90010C6E9001040EACA7087
:10039000706000F083FAC0F80090142108460FB096
:1003A000BDE8F04F02F02FBE002108464FF00000DC
:1003B000B8F10001099002DAC7F1000200E03A4604
:1003C00001DAC8F1000106A800F030FC06AB93E8A2
:1003D000070003AB83E8070044F23E005BEA040138
:1003E0000090584604D144F21E012C465D4600910F
:1003F000210C0904014306D10099240444EA154460
:100400002D041039009104F07F41014306D1009979
:10041000240244EA15642D020839009104F0704169
:10042000014306D10099240144EA15742D01091FE6
:10043000009104F04041014306D10099A40044EA30
:100440009574AD00891E009104F00041084304D169
:1004500000986D196441401E00904FF001033A4628
:100460006846B8F1000FCDE9014503A902DD01F0AE
:10047000AAF901E001F07DF9BAF1000F04460D463A
:1004800001D084F00044002108464FF00000099993
:1004900040F2FF77484010F00C0F07D124F00040E5
:1004A000284303D0C4F30A50B84212D100F0F6F941
:1004B000C0F80090C4F30A50B8420AD1A848784462
:1004C000D0E90010C6E9001004F000410843706054
:1004D00042E7C6E900543FE72DE9FF4F1F464FF0C2
:1004E000000A4FF0FF38454691B0D7E90146CDF8F4
:1004F0003CA000F0CFF9C0680168405C1090B96979
:1005000012986D1C8847396A814688470028F6D1C1
:10051000B9F1FF3F0AD0002E24F4D06411DDB9F107
:100520002B0F08D0B9F12D0F0BD102E0404615B0CA
:1005300013E744F48064B96912986D1C8847761EED
:100540008146600504A901D52D2000E02B20002E56
:1005500001F1010B0DF130088DF810003FDDB9F10C
:10056000690F08D0B9F1490F05D0B9F16E0F02D06B
:10057000B9F14E0F1CD13B4601A8009580E850020E
:10058000DDE912126FF0020002F0A4FDC11CCED111
:100590000EE0B96912986D1C884781461398761E43
:1005A00044F4007405600F98401C002E0F9016DD77
:1005B000B9F1300FEDD0B9F1780F02D0B9F1580F81
:1005C0000DD10F9801280AD13B46CDE90054DDE951
:1005D0001212001F029602F07BFDC11CA7D11099D8
:1005E00089453ED144F0800406E01399681CAAF1C5
:1005F000010A44F400740860B9696D1C1298761EF3
:10060000884730288146F0D02BE01099894505D1E4
:10061000200603D4761E44F0800418E0484602F019
:10062000A2F808B3761E0DF123018B4544F4007443
:1006300008D2A9F130000BF8010B200607D5AAF16A
:10064000010003E0200602D40AF101008246A00561
:1006500002D51399681C0860B96912986D1C884707
:100660008146002ED1DC53E0002E51DDB9F1650F3B
:1006700002D0B9F1450F4BD1A00549D5B9696D1C20
:100680001298761E24F440748847002E81460CDDB3
:100690002B2804D0B9F12D0F07D144F48074B96927
:1006A00012986D1C8847761E8146E00501D52D21E4
:1006B00000E02B2108F8011BCDF8008021E0761E18
:1006C0000DF13901884544F400740CD2A9F13000D1
:1006D00010F0FF0088F8000002D10099884509D980
:1006E00008F1010806E0E00501D51E4801E042F2EC
:1006F0000F708246B96912986D1C8847814613981D
:100700000560002E04DD484602F02DF80028D6D101
:10071000F96912988847FF2053468BF8000088F843
:10072000000000200A900B9004AA0CA90AA8FFF769
:10073000ADFDA00502D46FF00100F8E614F0240F1F
:1007400012D0E0071CD13868DDE90A12031D3B60B6
:100750000068C0E9001213E0702E0000622E000055
:10076000262D0000F1D8FFFF0AA9684601F08AFF94
:10077000E00705D13868009A011D39600068026001
:100780002846D4E602681144137801601846704781
:10079000D1600549794451610449794411620021CD
:1007A0001161114600F088B8EDFFFFFF070100005E
:1007B000426842B1016811F8013B23B1521EC0E901
:1007C0000012184670470121C160881E70474268B8
:1007D0005AB1C368016843B983688B4205D0491E8A
:1007E000521CC0E90012002070474FF0FF307047E4
:1007F0000FB4002300B589B00CA900910B99CB6010
:10080000214B7B440693214B7B44079304236FF0D9
:100810000042CDE901321E4A7A446B4608920246F4
:10082000002002F053FC09B05DF814FB70B50646D9
:100830004FF0FF3015460C46324686B00091CDE9A8
:10084000010169460020049004A8FFF7D1FF024689
:100850000498211825B108B1084600E02046286018
:10086000049800280DD0002A02DD0098884208D0A4
:100870003246081B69460094CDE9010404A8FFF73D
:10088000B7FF06B070BD0000ABFFFFFFC3FFFFFF67
:100890008900000000487047880000200048704729
:1008A0006800002010B5044600F05CFA0068005DA6
:1008B00000F0010010BD00002DE9F34F4FF0000AD9
:1008C0000C4656468DB001200C9001F10C000B90A7
:1008D00062690B9801219047051E2DD0252D2CD043
:1008E000216A8847C0B162690B9801219047216A4B
:1008F00088470028F7D16269411E0B98904700E0B5
:10090000761CA1690D988847216A88470028F7D18D
:10091000E1690D988847DBE7A1690D988847A842EF
:10092000074601D1761CD3E7E1690D9888477F1C03
:1009300002D1BAF1000F6FD06CE162690B98002709
:100940003D46394690472A2804D162690B98012117
:1009500090470125DFF8D08262690B98012190470A
:10096000A0F130010A290AD24745E5DC07EB8701EF
:1009700000EB4107303FDFD445F01005ECE7E90616
:1009800001D46FF000476C280AD04C2814D0682896
:1009900015D06A280DD074281CD07A281AD01DE0F2
:1009A00062690B98012190476C2802D045F004053C
:1009B00014E045F002050DE045F020050AE062690B
:1009C0000B9801219047682802D045F0080505E002
:1009D00045F4006562690B9801219047C4E901570D
:1009E00065283DD019DC58287AD00CDC452837D052
:1009F00004DC252826D041289ED131E046282FD07E
:100A0000472899D12CE05B2877D0612828D063282B
:100A10007CD0642823D15AE0F7E06F2848D008DC66
:100A200066281DD067281BD0692821D06E2816D1D2
:100A300027E0702845D0732868D0752847D07828DB
:100A40000DD14DE0A1690D988847252805463FF452
:100A500069AFE1690D9888476D1C3FF46AAFD9E032
:100A60000D9923466A466FF0010002F02FFBC6E0A5
:100A700045F0400023464FF000026060A80736D4DE
:100A80003EE0E8077FF447AF2068011D2160006861
:100A9000290501D506701BE7290701D5068017E750
:100AA000A90703D5F117C0E9006111E706600FE758
:100AB00045F0400023464FF008026060A80716D4B6
:100AC0001EE040F60E0125EA0100606016E045F0E8
:100AD000400023464FF00A026060A80707D40FE0E9
:100AE00045F040006060A80708D5234610220D9904
:100AF0006FF00100AFF3008081E007E01022234691
:100B00000D996FF00100AFF3008078E04FF000091D
:100B100063284F46C8464B46CB4602D05B2807D0D9
:100B200039E02079C00601D40120A060012732E01D
:100B30006269D4F80CB00B98012190475E2807D168
:100B40004FF0010949466269D4F80CB00B98904700
:100B5000216939B900210A4603AB43F82120491C19
:100B60000829FADBD8B3216949B308F101086269A1
:100B70000B98012190475D28F4D1B9F1000F09D0FD
:100B8000002003A951F82020D24341F82020401C26
:100B90000828F7DB03AB2069002820794FEA407072
:100BA0001ED05B462246CDF80080CDE901970D9915
:100BB00000286FF0010020DAAFF300801FE0C117BA
:100BC00003AA00EBD1614B1121F01F0102EB83025C
:100BD000411A13680120884003431360C7E719E0F6
:100BE0000D99224600286FF00100009702DAAFF35A
:100BF000008004E0AFF3008001E0AFF30080002844
:100C00000ADA401C06D10C9820B14FF0FF300FB02B
:100C1000BDE8F08F5046FAE7E90701D10AF1010A71
:100C2000064400200C9053E6CCCCCC0C2DE9F047C8
:100C3000814616468AB0354878440DC88DE80D00C7
:100C400032487844801C03AC0DC884E80D0041F69E
:100C50009B300844372190FBF1F290FBF1F5A5F1B0
:100C6000800501FB12041B3C02D56442012000E018
:100C70000020DFF898A080460027FA44AAF1BE0AB7
:100C80000EE0E0070AD03246684607EB4701012331
:100C90000AEB810100F082FD8DE8070064107F1CE3
:100CA000002CEED1194F7F44AE3F19E0E80715D074
:100CB00007EB04100DF1180A90E80E008AE80E0008
:100CC000C068F04201D1981908903246012306A964
:100CD00003A800F063FD03AB83E807006D10641CFC
:100CE000002DE3D14FF0010332466946B8F1000F01
:100CF00003A802D000F028FD01E000F04FFDC9E993
:100D00000001C9F808200AB0BDE8F087742500008A
:100D100000487047680000207546FFF7F9FFAE46AF
:100D200005006946534620F00700854618B020B5F7
:100D3000FFF746FABDE820404FF000064FF00007ED
:100D40004FF000084FF0000B21F00701AC46ACE873
:100D5000C009ACE8C009ACE8C009ACE8C0098D46E0
:100D60007047000010B5FFF795FD001D10BD00BFD6
:100D7000091C00002DE9FF4F1F464FF03C0987B0CA
:100D80004FF00042DDE9141001F10108DDF858A030
:100D900002EA405003900020059083460546044631
:100DA0000490B969461E08988847AAF1010A029082
:100DB000BAF1000F3BDD02982E2815D0102100F06B
:100DC00060FA00282EDB4FF0010B0599014317D084
:100DD000B9F1000F0BDB4A46C11700F03FFA05439B
:100DE0000C43A9F1040905E0012004900BE008B1CF
:100DF00045F0010501200590049820B9361D02E058
:100E0000049800B1361FB969089808F101088847AD
:100E1000BBF1000FAAF1010A0290C9D00999C1F8EB
:100E20000080C5E70298702808D0502806D0F969DC
:100E300008988847BBF1000F14D04FE000200290C3
:100E40000120BBF1000F049009D0B969089808F19E
:100E500001088847AAF10109B9F1000F07DCF96917
:100E6000089888476FF001000BB0BDE8F08F2B2881
:100E700004D02D280CD14FF0FF300490B9690898A8
:100E800008F101088847A9F10109B9F1000FE6DD71
:100E9000411CE4D00A2100F0F4F90028DFDB0299BC
:100EA00008F1010801EB810100EB41000290B969F2
:100EB000089888470A2100F0E4F9099AA9F1010984
:100EC000B9F1000FC2F8008001DD0028E7DAF96906
:100ED000089888470499029800FB016655EA0400C7
:100EE00004D004F04041090002D006E0039898E0E5
:100EF000A40044EA9574AD00B61E04F00041080059
:100F000002D16D196441761E159810F0240F03D09C
:100F10004FF00B095C4803E04FF028096FF07D00AB
:100F20008246564507DAAAEB06018944B9F1410F1A
:100F300001DD4FF0410901200021A9F1010200F07B
:100F40008DF9024628400B462140084301D001217B
:100F500000E00021501E029143F1FF312840214062
:100F6000084301D0012000E000200299834651EAA5
:100F70000B014FD0002108464FF00000039900F408
:100F8000400039B100EB80004FF4400100EBD0701D
:100F900001EA60008015012802DD4FF0FF3000E01B
:100FA00013D0401C36D0029860B3BBF1000F0CD1B7
:100FB0004A460120002100F051F928402140084311
:100FC00001D0012000E00020E0B101204A460021CC
:100FD00000F044F9034640190A4661412D1A8C413C
:100FE00011D3B9F1400F09DD159810F0240F02D08C
:100FF000AAF1340603E0AAF1170600E0761C0025EA
:101000004FF0004406E05B1E42F1FF3220EA030588
:1010100021EA0204CAF10100B04206DA1B49039832
:1010200008430190002000900EE0039AC4F3D321FE
:10103000E80A0A43164940EA44500A433146CDE9DA
:101040000002684601F084FB159810F0240F0BD0C5
:101050001598C00715D13868DDE90012031D3B6003
:101060000068C0E900120CE002A8694601F00AFB22
:101070001598C00705D13868029A011D39600068CB
:1010800002604046F0E6000002FCFFFF0000F07F37
:101090000000F03F2DE9FF4F92461D4685B04FF00E
:1010A0000041DDE9124BDDE914727F1E01EA4B506D
:1010B000414940F0FF4940EA0108002122F02000A8
:1010C0004928049102D04E2828D04CE03BA00126AC
:1010D00007C88DE80700A9690698641C88477F1E29
:1010E000014606D41DF8060018B121F02001814206
:1010F0000BD0E96906988847032E34D0082E32D0E9
:101100006FF0010009B0BDE8F08F761C032E01D00E
:10111000082EE0D1601CCAF80000DCE7A969069837
:10112000641C88477F1E2AD420F02000412826D145
:10113000A9690698641C88477F1E20D420F02000EF
:101140004E281CD1A9690698641C88477F1E48F464
:10115000002849F48009CAF8004001D4282806D0A4
:10116000E969069888475FEACB7012D022E0A96946
:101170000698641C88477F1E01D4002803DAE969B9
:1011800006988847BCE72928F1D1641CCAF80040BA
:10119000E9E71BF0240F07D028680499031D2B6092
:1011A0000068C0E9001805E02868021D2A60006890
:1011B000C0F800902046A5E70000F07F494E464960
:1011C0004E4954590000000010B50446AFF30080AA
:1011D0002046BDE81040FEF7DEBF00004FF0013CA6
:1011E00050F8042B51F8043B9A4221D1A2EB0C0396
:1011F000934313EACC1317D150F8042B51F8043B56
:101200009A4215D1A2EB0C03934313EACC130BD1F2
:1012100050F8042B51F8043B9A4209D1A2EB0C037D
:10122000934313EACC13DBD04FF00000704700BFAC
:10123000D01A01BAB1FA81F101F0180122FA01F0D5
:10124000CB40C1F12001DBB2C0B2C01A2CFA01F3CD
:10125000D11A914311EAC311E6D17047B2F12003CC
:101260000AD5C2F1200301FA02F120FA03F300FAD1
:1012700002F041EA0301704700FA03F14FF0000069
:1012800070473A2800D2303820F02002412A01D39A
:10129000A2F13700884201D34FF0FF3070470000C1
:1012A00001491820ABBEFEE726000200704720F07F
:1012B0007F4C80EA030023F07F47ACEB070303F584
:1012C0007C5300F0004003F1FF032DE980494FEA11
:1012D000154B09B44FEA144325EA0B4E24EA0348A0
:1012E0000FF2042606EB132749083E785FEA320224
:1012F00003FB0667C7F5000707FB06F64FEA5437FE
:101300004FEAD64606F1020607FB066CCCF1005CFC
:101310004FEA1C472CEA074C07FB06F40CFB06F5CA
:1013200004EB15464FEA961634BF00204FF00040FC
:101330004FEAD13706FB07FC4FEA1C4C0CFB0BF7BE
:10134000D21B03FB0CF761EB07010CFB0EF7B0EBB4
:10135000074072EB17420CFB08F734BFA2EB0742C1
:10136000B2EB074261EB17414FEA0C444FEA910799
:1013700006FB07FC4FEA1C4C0CFB0BF7B0EBC7401D
:1013800072EB573203FB0CF734BFA2EBC742B2EB50
:10139000C74261EB57310CFB0EF7B0EBC70072EBA5
:1013A00057720CFB08F734BFA2EBC702B2EBC702BF
:1013B00061EB5771039F4FEA816141EA921104EB9F
:1013C000CC044FEAD1374FEA826206FB07FC42EABF
:1013D00090124FEA80604FEA1C4C0CFB0BF7D21BBB
:1013E00003FB0CF761EB07010CFB0EF7B0EB0740BA
:1013F00072EB17420CFB08F734BFA2EB0742B2EBCB
:10140000074261EB17414FEA8C554FEA910704EB15
:101410009C2406FB07FC4FEA1C4C0CFB0BF7B0EBC3
:10142000C74072EB573203FB0CF734BFA2EBC74245
:10143000B2EBC74261EB57310CFB0EF7B0EBC700C4
:1014400072EB57720CFB08F734BFA2EBC702B2EB8A
:10145000C70261EB577115EB4C254FEA816141EAF8
:1014600092114FEA82624FEAD13742EA901206FBAC
:1014700007FC44F100044FEA80604FEA1C4C0CFB6F
:101480000BF7D21B03FB0CF761EB07010CFB0EF70C
:10149000B0EB074072EB17420CFB08F734BFA2EB2E
:1014A0000742B2EB074261EB174115EB1C154FEAFF
:1014B000813141EA92414FEA823242EA90424FEA58
:1014C00080304FEA0C7644F1000448EA03434EEAC8
:1014D0000B484FF0000EB2EB080C71EB030724BF72
:1014E000624639464EEB0E0E4FF0000B001852418B
:1014F00049414BEB0B0BB2EB080C71EB03077BF193
:10150000000B24BF624639464EEB0E0E4FF0000B27
:101510000018524149414BEB0B0BB2EB080C71EB3D
:1015200003077BF1000B24BF624639464EEB0E0EDB
:1015300051EA020718BF46F0010616EB0E7655F188
:10154000000254F1000103D5BDE88901BDE800881F
:10155000BDE88901BDE80048B619524141EB0101DF
:10156000A3F10103704780807F7E7D7C7B7A797850
:10157000777676757473727171706F6E6E6D6C6C58
:101580006B6A6A69686867666665646463636261FA
:101590006160605F5F5E5E5D5D5C5C5B5B5A5A597B
:1015A00059585857575656555555545453535252E7
:1015B0005251515050504F4F4F4E4E4D4D4D4C4C3F
:1015C0004C4B4B4B4A4A4A49494948484847474788
:1015D00047464646454545444444444343434342C5
:1015E000424242414141000046EA0646A3F570539B
:1015F0004FEA164646EA42564FEAD22242EA4152A2
:1016000010B54FEAD121A3F1010300F02FF820F02B
:10161000004000F1020C00F0004701EB00501146C1
:10162000BCF5006F40EA070000D210BDBAF1000F10
:101630000AD01CB503B44FF004004FF004014FF082
:1016400000000FBCBDE810404FF00001BBF1010FDE
:10165000B9BF04484FF0FF310348002140EA0700BA
:1016600010BD00BFFFFFEF7F0000F07F002B9C4606
:1016700030D477002BD01CB54FEA370703B44FF0B6
:1016800010004FF01001BAF1000F06D0BCF1000FAE
:10169000DCBF40F0080040F008014FF000000FBC34
:1016A000BDE810400BF1010BBBF1010F08BF5FEA71
:1016B000170722BF12F1010211F101014FF00041A1
:1016C00043F1000300F0004043EA00007047F9D303
:1016D0005708D0E746EA064613F1400F4FEA164690
:1016E0001FDD13F1200FDFBF16430A460021203310
:1016F0005B42BED0C3F1200746EA064602FA07F76E
:101700004FEA164646EA0706C3F1200722FA03F21B
:1017100001FA07F721FA03F14FF0000342EA07024A
:10172000A7E746EA020646EA06464FEA164646EAB2
:101730000106BCBF46EA0646360C4FF000034FF0E8
:1017400000024FF0000194E72DE9804C9A46934641
:1017500070B491E8380007C831EA400C48BF34EA59
:10176000430C03D5FFF7A3FDFFF780FFF0BCBDE8F6
:10177000008C2DE9804C9A46934670B491E838006D
:1017800007C831EA400C48BF34EA430C03D5FFF7E1
:101790008EFDFFF729FFF0BCBDE8008C2DE9804CE1
:1017A0009A46934670B491E8380007C810F0804F0D
:1017B00008BF13F0804F03D100F01AF8FFF756FF6F
:1017C000F0BCBDE8008C2DE9804C9A46934670B47D
:1017D00091E8380007C810F0804F08BF13F0804F21
:1017E00003D100F005F8FFF7FFFEF0BCBDE8008C68
:1017F00020F07F4780EA030023F07F4C07EB0C03C7
:10180000A3F57C5300F00040A3F1FE0392F0000F1B
:1018100000F0B38095F0000F00F077802DE90149CA
:101820004FEA11404FEA144621EA004800FB06FC4B
:1018300024EA064708FB06F607FB08F800FB07F753
:1018400018EB06484CEB164C4FEA124B18EB0748C6
:101850004FEA15464CEB174022EA0B4E0BFB06FCF9
:1018600025EA06470EFB06F607FB0EFE0BFB07F705
:101870001EEB064E4CEB164C4FF000061EEB074ECF
:101880004CEB174B18EB0B0840F1000018EB0E0B5C
:1018900058EB000840F100008F1A4FF000013CBFE8
:1018A000C943661B14BFB5EB040C00213CBFC94300
:1018B000F61B4FEA17444EEA8E0E27EA04454FEA1C
:1018C0001C4704FB07622CEA074C05FB07F70CFBDF
:1018D00005F604FB0CFC16EB074642EB174216EB31
:1018E0000C4642EB1C421BEB060658EB0202414140
:1018F00046EA9E0601D5BDE80189B619524141EB81
:101900000101A3F10103BDE801894FEA14454FEA43
:10191000114724EA054621EA074C05FB07F406FBBC
:1019200007F70CFB06F105FB0CFC11EB074144EB40
:1019300017444FEA124711EB0C4144EB1C4422EAD6
:10194000074C05FB07F206FB07F70CFB06F605FB49
:101950000CFC16EB074642EB174216EB0C4642EB2B
:101960001C456A1854F1000148BF7047B61952412E
:1019700041EB0101A3F10103704795F0000F37D04F
:101980004FEA11424FEA144721EA024624EA074C83
:1019900002FB07F106FB07F70CFB06F402FB0CFC4D
:1019A00014EB074441EB17414FEA154714EB0C4485
:1019B00041EB1C4125EA074C02FB07F506FB07F744
:1019C0000CFB06F602FB0CFC16EB074645EB174535
:1019D00016EB0C4645EB1C42121951F1000148BFB1
:1019E0007047B619524141EB0101A3F10103704761
:1019F0004FEA14454FEA114724EA054621EA074C0D
:101A000005FB07F106FB07F70CFB06F24FF000069B
:101A100005FB0CFC12EB074241EB174112EB0C42A9
:101A200051EB1C4148BF7047921841EB0101A3F1F3
:101A300001037047FEE7704772B6FEE770B50446D3
:101A400000F00CF90546601C02D0044800780444FC
:101A500000F004F9401BA042FAD370BD1000002032
:101A60002DE9F84FDFF8B8910024A9F1040B2346C3
:101A70000F2709F1040AABF1040EC9E00125A540C6
:101A80002A40AA427DD1674ED1F804C0ACEB0608CB
:101A9000B44532D014DCBCF1030F3AD009DCBCF100
:101AA000000F2AD0BCF1010F1CD0BCF1020F31D1C4
:101AB0001DE0BCF1110F17D0BCF1120F2AD119E0B3
:101AC000B8F5881F19D006DCB8F5803F15D0B8F5F9
:101AD000801F1FD111E0B8F5001F0ED0B8F5041F0C
:101AE00018D10AE0CB6815E0CB681B1D12E0CB686B
:101AF00008330FE0CB680C330CE08B682BB1012B63
:101B00004FF0080303D0456104E0042302E00561BF
:101B100000E00023FF2A01D8064601E000F1040698
:101B20004FEA840501D9A5F12005D6F8008007FA0F
:101B300005FC28EA0C0803FA05F548EA0508C6F88A
:101B400000804D68ED0062D5374DAE6946F0010664
:101B5000AE61AD6924F0030605F001050095334D33
:101B600006EB050CDCF80850A607360F07FA06F856
:101B700025EA0805DFF8B880404503D14FF000089A
:101B800017E044E0DFF8AC80404502D14FF0010897
:101B90000FE0DFF8A480404502D14FF0020808E0D2
:101BA000DFF89880404502D14FF0030801E04FF084
:101BB000040808FA06F848EA0508CCF808804D68D9
:101BC000D9F80060ED024D4601D5164300E096437A
:101BD0002E604D68DAF80060AD02554601D5164317
:101BE00000E096432E604D68DBF80060AD035D4673
:101BF00001D5164300E096432E604D68DEF8006084
:101C0000ED03754601D5164300E096432E60641C33
:101C10000D682A46E5407FF431AFBDE8F88F00003B
:101C200008040140000011100010024000000140B3
:101C300000080140000C0140001001400014014068
:101C4000C26821EA02030A4043EA02410161704787
:101C50000AB1016170470904FBE700000148806890
:101C6000704700001000002002488168027811448B
:101C70008160704710000020074810B5016841F0EE
:101C800010010160032000F067F80F2000F006F853
:101C900000F024F8002010BD0020024070B50D4D6A
:101CA00004464FF47A712878B1FBF0F00A490968CC
:101CB000B1FBF0F000F0CEFA48B9102C07D20022A8
:101CC0002146501E00F028F800206C6070BD0120F5
:101CD00070BD0000100000201C0000200C4808B55A
:101CE000816941F001018161816901F00101009187
:101CF000C16941F08051C161C06900F0805000901D
:101D00000448416821F0E06141F00071416008BD84
:101D10000010024000000140F0B40E4B1B680C465E
:101D2000C3F30223C3F10705042D00D90425191DAF
:101D3000072901D2002300E0DB1E012606FA05F187
:101D4000491E214099409E40761E16403143F0BC0A
:101D500000F079BC0CED00E0064900F007020868CD
:101D60004FF6FF03184040EA0220034A1043086080
:101D7000704700000CED00E00000FA052DE9F04787
:101D80000F46050061D0434E306800F00700B842AE
:101D900009D2306820F0070038433060306800F026
:101DA0000700B84251D128683B4C810712D5400743
:101DB00003D5606840F4E06060602878000703D5D0
:101DC000606840F4605060606068A96820F0F000CE
:101DD000084360602878C00728D06868012810D0C0
:101DE0002168022810D0890700292EDA616821F0C5
:101DF000030101436160FFF731FF804641F28839FA
:101E00000DE021688903EFE78901EDE7FFF726FF81
:101E1000A0EB0801494502D90320BDE8F0876068BE
:101E2000696800F00C00B0EB810FEFD1306800F072
:101E30000700B8420BD9306820F007003843306003
:101E4000306800F00700B84201D00120E5E72878AB
:101E5000400705D56068E96820F4E06008436060E9
:101E60002878000706D56068296920F4605040EAA8
:101E7000C100606000F038F86168084AC1F30311DE
:101E8000515CC8400649086006480068FFF706FF35
:101E90000020C2E700200240001002401A31000872
:101EA0001C0000201400002004480549006849680F
:101EB000044AC1F30221515CC84070471C00002055
:101EC000001002402A3100080448054900684968AA
:101ED000044AC1F3C221515CC84070471C00002075
:101EE000001002402A3100080E4A51680E4801F0E5
:101EF0000C03042B11D0082B0FD10C48C1F38343E2
:101F0000C903C05C0AD55168084AC1F34041921E1A
:101F1000515C054A5043B0FBF1F070470449484317
:101F2000704700000010024000127A000A310008D9
:101F300000093D002DE9F84F040070D02078C04D15
:101F4000C00749D06868C0F38100012807D06868DD
:101F5000C0F38100022809D16868C00306D528684B
:101F6000800339D560680028E7D035E06068B0F5B7
:101F7000803F0BD010B1B0F5A02F11D0286820F40D
:101F800080302860286820F4802002E0286840F42F
:101F900080302860606890B1FFF760FE06460AE076
:101FA000286840F480202860F0E700BFFFF756FE65
:101FB000801B642873D828688003F7D50CE0FFF7EE
:101FC0004DFE064605E000BFFFF748FE801B642873
:101FD000F0D828688003F7D420789A4E80074FF015
:101FE00001094FF0000839D5686810F00C0F07D0D0
:101FF0006868C0F38100022809D16868C00306D46C
:102000002868800714D52069012808D110E02069CC
:10201000B0B1C6F80090FFF721FE074605E00AE1DF
:10202000FFF71CFEC01B0228C4D828688007F7D51C
:102030002868616920F0F80040EAC10028600DE0DE
:10204000C6F80080FFF70AFE074604E0FFF706FE29
:10205000C01B022823D828688007F7D420780007FF
:102060002CD57948A169D9B1C0F80090FFF7F6FDE9
:10207000074604E0FFF7F2FDC01B02280FD8686A8C
:102080008007F7D571484FF4FA510068B0FBF1F0C2
:10209000009000BF0098411E0091FAD20EE080E04F
:1020A000C0F80080FFF7DAFD074604E0FFF7D6FD31
:1020B000C01B022875D8686A8007F7D420784007CB
:1020C00060D5E8690027C00008D4E86940F0805076
:1020D000E861E869012700F0805000905C480168E1
:1020E000C90513D40168834641F480710160FFF78C
:1020F000B5FD824606E000BFFFF7B0FDA0EB0A0089
:1021000064284ED8DBF80000C005F5D5E06801284A
:102110000AD008B1052813D0286A20F001002862EF
:10212000286A20F0040002E0286A40F001002862DA
:10213000E06841F2883B98B1FFF790FD82460BE0E2
:10214000286A40F004002862EEE700BFFFF786FD32
:10215000A0EB0A0159455AD8286A8007F6D50CE049
:10216000FFF77CFD824605E0FFF778FDA0EB0A0152
:1021700059454CD8286A8007F6D41FB1E86920F089
:102180008050E861E06988B36968C1F38101022980
:1021900044D00228C6F8608004D0FFF75FFD0446F3
:1021A00038E034E0FFF75AFD074604E0FFF756FD3C
:1021B000C01B02282BD828688001F7D4206AB0F50C
:1021C000803F05D16868A16820F40030084368604A
:1021D000D4E908010843696821F474110843686070
:1021E000C6F86090FFF73AFD044606E025E000BF20
:1021F000FFF734FD001B022809D828688001F7D5B5
:102200001BE000BFFFF72AFD001B022802D90320B4
:10221000BDE8F88F28688001F4D40EE00128F7D0DB
:102220006868226A00F48031914204D1616A00F446
:102230007010884201D00120EAE70020E8E70000A2
:102240000010024000004242800442421C00002074
:102250000070004010B5401EB0F1807F01D3012016
:1022600010BD4FF0E02460610F21601700F0EBF922
:102270000020A06107202061002010BD70B504007F
:1022800004D094F84100002510B106E0012070BD93
:1022900084F84050204600F023F8242084F84100C0
:1022A0002068C16821F40051C160204600F032F975
:1022B0002068016921F4904101612068416921F0A1
:1022C0002A0141612068C16841F40051C160656420
:1022D000202084F8410084F842006563002070BD2E
:1022E00030B585B0002400940194029403940068F2
:1022F0001449884224D11448816941F480418161A4
:10230000816901F480410491816941F00401816196
:1023100080690E4D00F0040004904FF400700090AE
:10232000022001900320039069462846FFF798FB9E
:102330002815CDE90004694628460294FFF790FB72
:1023400005B030BD003801400010024000080140D7
:102350002DE9F843044690F84200994616460D468A
:10236000202802D00220BDE8F883ADB1A6B100203C
:102370006064222184F842102063FFF76FFCA68579
:102380008046E685A0684FF48057B84201D12069A5
:1023900020B12E46002526E00120E4E7002622E0B9
:1023A0004346002220212046CDF8009000F00EF98F
:1023B00008B10320D7E726B1A068B8421BD038B1D6
:1023C00008E020684068C0F3080025F8020B07E029
:1023D000206980B12068406800F07F0006F8010B9A
:1023E000E08D401EE085E08D0028D9D1202084F8C2
:1023F00042000020B7E720684068EFE7FEE70000F2
:1024000070B586B000241848009401940294039497
:10241000816941F010018161816901F0100104912D
:10242000816941F020018161816901F020010491FD
:10243000816941F0040181618069012200F004009A
:102440000A4E5503049029463046FFF701FC01204F
:102450000095CDE901040220039069463046FFF75C
:10246000FFFA06B070BD00000010024000100140ED
:102470000C4810B50A4901604FF4E1314160002178
:1024800081600C22C160C0E904128161C161FFF763
:10249000F5FE002803D0BDE81040FFF7CDBA10BD0F
:1024A0000038014020000020FEE7FEE7704770473B
:1024B000FFF7DABB30B58FB028216846FDF7B0FED4
:1024C00014210AA8FDF7ACFE01210804CDE9001093
:1024D0000024029402250491CDE907504FF4E01046
:1024E00009906846FFF726FD08B172B6FEE70F2097
:1024F000CDE90A054FF48060CDE90C4002210AA81D
:102500000E94FFF73BFC002801D072B6FEE70FB037
:1025100030BD704770B5044600680169E26821F477
:102520004051114301612169A06808436169084372
:102530002168CA6841F20C639A430243CA6020686A
:102540004169A26921F44071114341611E4920682B
:10255000884202D1FFF7B8FC01E0FFF7A5FC00EBD1
:10256000C00101EB0012606864218000B2FBF0F34F
:10257000B3FBF1F36FF018067343B2FBF0F5B2FB57
:10258000F0F605EB8305322303EB0515B5FBF1F5FA
:10259000B6FBF1F605F0F00505EB0615B2FBF0F61B
:1025A000B2FBF0F0B0FBF1F06FF01802504306EB15
:1025B000800003EB0010B0FBF1F0216800F00F0089
:1025C0002844886070BD0000003801402DE9F041CA
:1025D000984617460E460446069D27E0681C25D0FF
:1025E0002DB1FFF73BFBA0EB0800A8421ED92068E5
:1025F0000C3050E8001F21F4D07140E80012002A8E
:10260000F5D12068143050E8001F21F0010140E8A6
:102610000012002AF5D1202084F8410084F84200FD
:10262000002084F840000320BDE8F08120680068A5
:1026300036EA000004D00020B842CFD00020F3E7F3
:102640000120F9E7FEE70907090E002804DB00F185
:10265000E02080F80014704700F00F0000F1E02047
:1026600080F8141D704740F2013200204FF0E04125
:1026700000F0FEBC024A0020110700F0F9BC000087
:1026800001FDFFFF10B50446D1E9000100F002F89A
:10269000206010BDF8B504460D466A4600F080F88B
:1026A00000987E30009000281EDC00221346204651
:1026B000294600F065FA17D0002140F608004FF0D7
:1026C000000006462046294600F06CF9044640F614
:1026D000080006EA00014FF0000034F0004004BF9B
:1026E0000220FDF7CCFD29E00098FF2828DB00211F
:1026F00008464FF0000000F4400600221346204632
:10270000294600F04FFB8CBF002501250220FDF774
:10271000B6FD4FF0FF4446B1002D0CBF4FF4000052
:102720004FF48000B04218BF084C042108464FF017
:102730000000002D04BF84F00040F8BD2046F8BD25
:1027400020462946BDE8F84000F02CB9FFFF7F7F06
:1027500010B504460A46D4E90003194600F04CF8C7
:10276000C4E9000110BD30380A2801D201207047A9
:102770000020704730B583B00446FDF77BFD054669
:102780000020CDE90000024621466846FEF74EF8DB
:102790002846FDF774FDDDE9000103B030BD0000FF
:1027A00010B5144600222260114A21F000439342E2
:1027B000A8BF10BD53EA000208BF10BDB3F5801FCB
:1027C000A8BF226807DA362200F052FC6FF035020B
:1027D00021F000432260DFF81CC06FF31E510CEBA8
:1027E00023531A4441F0FF5141F00051226010BDC3
:1027F0000000F07F02FCFFFF2DE9F04106460C4689
:1028000040F2FF75174635EA14502BD000221346CC
:10281000304600F0B5F925D03A463046214600F062
:1028200027FC06460C4635EA145010D00022134609
:10283000304600F0A5F915D10220FDF720FDFFF785
:1028400019FF0A46214662F31E01BDE8F08102200D
:10285000FDF715FDFFF707FF0A46214662F31E014B
:10286000BDE8F08130462146BDE8F08186B0FFF733
:1028700003FAFFF71FFEFFF7C3FDFFF7F9FDDFF8CF
:10288000A8902A4C4FF47A76334614226946284899
:10289000FFF75EFD254A27A16846FDF7A3FC6846C1
:1028A000FFF768FFC4E90201D4E9000100224B46AA
:1028B00000F078FA1ED8D4E90001002507468846C2
:1028C00000F09AF90A2102E090FBF1F06D1C0A2851
:1028D000FADA002104E000BF00EB80004000491C50
:1028E000A942F9DB00F0B7F93A46434600F090FA06
:1028F000C4E90001D4E900010F4A104B00F094FA3A
:1029000021F000410E4A0F4B00F0BCF907D24FF402
:1029100000510D48FFF794F90020C4E9000030464B
:10292000FFF78CF8B0E70000000024400000002012
:1029300020000020256C66006F1283C0CA21094068
:102940002D431CEBE2361A3F0010014010B5002960
:102950000AD00878002807D005487844FEF73EFCE6
:10296000002801D0002010BD0248784410BD0000AE
:102970009E0800009608000010B500290AD00878CB
:10298000002807D005487844FEF728FC002801D02D
:10299000002010BD0248784410BD00008E080000E1
:1029A0008608000021F00042A2F16052B2F5801FBB
:1029B00001F0004328BFD2F17F6C0BD95FEA001C05
:1029C00043EAC20242EB507018BF704728BF20F0A4
:1029D00001007047B2F5801FBCBF184670474FEA30
:1029E000410C1CF5001F02D2084600F007BB70B571
:1029F00000F084F900000089FFF7F6BF4FF00040B7
:102A0000A0F580007047000010B591EA030F48BFA1
:102A100083F0004300F11082841A71EB030C05D29D
:102A2000121943EB0C03001B61EB0C01DFF824E1EE
:102A30004FEA1154A4EB135C1EEA430F18BF9EEA41
:102A4000445F73D023EA0E03DCF1200E21EA045127
:102A500043F4801332D322FA0CFE10EB0E0023FA5B
:102A60000CFE41EB0E01CCF1200E03FA0EFE10EB32
:102A70000E0051F10001B1F5801FCCF1200E32D2D1
:102A800001EB045112FA0EF2BDE8104058BF704736
:102A9000401C38BF5FEA420218BF7047002814BFCD
:102AA00020F0010041F100014FEA410313F5001F3E
:102AB00038BF7047A1F1C04100F06EB9012A43EB65
:102AC0000302ACF1200CDCF11F0E32BF4FF0000E00
:102AD00023FA0CF310EB030041EB0451B4EB115F4C
:102AE000D0D0A1EB045101F5801149085FEA300014
:102AF00001EB04510ED350F1000038BF12FA0EFE64
:102B000008D1BDE81040C9E7401C38BF5FEA420267
:102B1000CAD1C3E7BDE810404FEA410313F5001FD7
:102B200038BF7047A1F1C04100F036B99EEA445F5A
:102B300008D011EA5E0FBDE8104004BF01F000416B
:102B400000207047BDE8104070B500F0D7F800BF16
:102B500064FBBE3E0000E0FF02494FF0000000F0C1
:102B600055BA00BF0000F87F491058BFC1F140417D
:102B70005B1058BFC3F140438B42EFF300807047B6
:102B800051EA030C17D41CF5801F58BFBCF5801FF9
:102B900000F10680994218BF704708BF9042704705
:102BA00007D711F5801F58BF13F5801F19D499421C
:102BB0007047894270471CF5801F08D5BCF5801FFF
:102BC000F7D58B4218BF704708BF824270474FF459
:102BD000001C1CEB410F38BF1CEB430F01D28B4292
:102BE000704770B500F08AF8922449004FF0005108
:102BF0004FF08053FFF7B8BF4FEA41034FEA5353FA
:102C0000A3F58063D3F11E03C8BFD3F1210C0CDD03
:102C10004FF0004242EAC12242EA505232FA03FC2B
:102C20008CEAE17CACEBE1707047102BC4BF002054
:102C3000704703F5787CBCF1FF3F04D06FF0004291
:102C400082EA2100704770B500F058F8499224805C
:102C500000207047F2E710F0004248BF4042B0FA4F
:102C600080F310FA03F10AD0C3F11D0303F580636A
:102C70004FEA415002EB035202EBD12170474FF073
:102C80000000704751EA030C17D41CF5801F58BF91
:102C9000BCF5801F00F10680994218BF704708BF3D
:102CA0009042704707D711F5801F58BF13F5801F5A
:102CB00019D499427047894270471CF5801F08D586
:102CC000BCF5801FF7D58B4218BF704708BF824202
:102CD00070474FF4001C1CEB410F38BF1CEB430F37
:102CE00001D28B42704770B500F008F89224490079
:102CF0004FF000514FF08053FFF736BF0EF1020E38
:102D00002EF0030E5EF8046B364205D4012A43EB25
:102D1000030515F5001F12D8012841EB010C1CF525
:102D2000001F0CD80ED14FEAD17C15F5001F0CEB1B
:102D30004C0C0CF1020C08BF4CEBD37C04E04FF0C0
:102D4000080C01E04FEAD37C0CEB4C0526FA05F6A3
:102D500006F00706B6F1040C06D20EEB860CBDE8B1
:102D600070404CF0010C6047DFE80CF0090B0202E8
:102D70004FF000414FF00000A1F5002170BD194651
:102D80001046012851EB010418BFD4F5001484BF8C
:102D9000002001F0004170BD0808A0F500114FEAC5
:102DA0003101704753EA010C17D41CF5801F58BF3E
:102DB000BCF5801F00F106808B4218BF704708BF2A
:102DC0008242704707D713F5801F58BF11F5801F47
:102DD00019D48B4270479B4270471CF5801F08D561
:102DE000BCF5801FF7D5994218BF704708BF9042C5
:102DF00070474FF4001C1CEB430F38BF1CEB410F16
:102E000001D2994270470FB40CBC03BCFFF76BBFF3
:102E100091EA030F10B581F000413FF5FDAD83F05D
:102E2000004300F009B8000010B591EA030F48BF55
:102E300083F000433FF5F0AD841A71EB030C07D229
:102E400012198CF0004C43EB0C03001B61EB0C01DE
:102E5000DFF8A4E14FEA1154A4EB135C1EEA430F20
:102E600018BF9EEA445F00F0B08023EA6E0352422E
:102E700021EA0451C3EB6E0338BF5B1EDCF1200E68
:102E800025D322FA0CFE10EB0E0043FA0CFE41EBA8
:102E90000E01CCF1200E03FA0EFE10EB0E0051F1E4
:102EA0000001CCF1200E29D412FA0EF201EB0451EC
:102EB000BDE8104058BF7047401C1CBFB2F1004F26
:102EC000704700280CBF491C20F00100704712EB2E
:102ED000020E43EB030218BF4FF0010E4EEA42020E
:102EE000ACF1200CDCF11E0E54D943FA0CFE10EBB1
:102EF0000E0051F1FF31CCF11E0ED5D50EF1010EB1
:102F000012FA0EFE404141EB010101EB445C5FEA25
:102F10005C5C10D910EBDE7001EB045138BFBEF1E0
:102F2000004FBDE8104018BF704700280CBF491C77
:102F300020F00100704730D24FEAD42C11F5001177
:102F400024F400641BD0B1FA81F20B3AA41AA41E37
:102F5000D2F12003914030FA03F31943904001EB82
:102F6000CC71002C01EB0451BDE81040A8BF7047A4
:102F700001F1C0414FF0000001F000417047B0FA8C
:102F800080F310FA03F100D110BDE41A173C480594
:102F9000C90AE4E701EB045110BD491001EB0451EB
:102FA000BDE810404FEA300002E04FF000017047EA
:102FB0004A0008BF0042F8D0B2F5001F28BF704792
:102FC00001F000414FF0000070479EEA445F07D0D7
:102FD00011EA5E0FBDE8104004BF002100207047D9
:102FE000BDE8104070B5FFF789FE00BF40DFF63E38
:102FF00083F00041104670470000E0FFFF2141EAE6
:10300000D050C00570474FF0000070470CF00F0320
:10301000092B08BF082000F05F800A2B0BD0082B7B
:1030200018BF704708BF1CF0400F0AD04FF00000D7
:103030004FF0000170471CF0400F18BF4FF00040E8
:1030400070471CF0100F08D020F0704300F07F4252
:1030500042EAD3014FEA4370704700F0604021F02C
:103060007F4242EA000201F07F4040EA72707047FE
:103070004FF0FF0C4CF4E06C1CEA11531CBF9CEAAF
:10308000030C9445C2BFDA4201EB02517047002B9A
:103090000DD0BCF1000F0FD0002A01F00041A4BFF9
:1030A00041F0E04141F07F614FF00000704701F0D6
:1030B00000414FF00000704750EA01334FF09B0C85
:1030C00018BF4CF0806C7FF447AD7047FDF704BA31
:1030D000FDF750BEFDF7DEBF1CF4801F11D01CF4BD
:1030E000E02F03D06FEACC31490070474FF04050D9
:1030F000EFF3008222F0704242EA000282F300887D
:1031000070474FF0000070470102020304050607F4
:1031100008090A0B0C0D0E0F101000000000000033
:103120000000010203040607080900000000010274
:103130000304000002400000000000A000000000A6
:1031400005400000000000C8000000000C40000026
:103150000000409C00000000194000000020BCBEA0
:103160000000000034400000BFC91B8E00000004B6
:10317000B5400000504BCFD06607E2CF0100000001
:103180006C4100003E8251AADFEEA734010000002E
:10319000D9420000DCB5A0E23A301F97FFFFFFFFE5
:1031A000B4450000FD25A0C8E9A3C14FFFFFFFFF04
:1031B000FF3F00000000008000000000FF3F000013
:1031C0000000008000000000243300080000002000
:1031D00020000000280100084433000820000020DF
:1031E000A806000044010008000000000000F07F75
:1031F000FFFFFFFFFFFFEF7F1C0000004300000008
:10320000F8FFFFFF0C0000000E0000000F000000A0
:103210002E0000001001000043000000F8FFFFFF37
:1032200000404040404040404040414141414140D9
:10323000404040404040404040404040404040408E
:10324000400502020202020202020202020202021D
:103250000220202020202020202020020202020222
:10326000020290909090909010101010101010107A
:103270001010101010101010101010100202020286
:1032800002028888888888880808080808080808CA
:1032900008080808080808080808080802020202C6
:1032A00040000000000000000000000000000000DE
:1032B000000000000000000000000000000000000E
:1032C00000000000000000000000000000000000FE
:1032D00000000000000000000000000000000000EE
:1032E00000000000000000000000000000000000DE
:1032F00000000000000000000000000000000000CE
:1033000000000000000000000000000000000000BD
:1033100000000000000000000000000000000000AD
:10332000000000000000000000000000000000009D
:10333000000000000100000010000000000000007C
:043340000024F40071
:04000005080000ED02
:00000001FF
