:020000040800F2
:10000000C0060020A1010008252100085320000897
:1000100021210008CF12000857230008000000002B
:100020000000000000000000000000005521000852
:10003000D312000800000000292100085721000801
:10004000BB010008BB010008BB010008BB010008A0
:10005000BB010008BB010008BB010008BB01000890
:10006000BB010008BB010008BB010008BB01000880
:10007000BB010008BB010008BB010008BB01000870
:10008000BB010008BB010008BB010008BB01000860
:10009000BB010008BB010008BB010008BB01000850
:1000A000BB010008BB010008BB010008BB01000840
:1000B000BB010008BB010008BB010008BB01000830
:1000C000BB010008BB010008BB010008BB01000820
:1000D000BB010008BB010008BB010008BB01000810
:1000E000BB010008BB010008BB01000800F002F8DA
:1000F00000F047F80AA090E8000C82448344AAF17B
:100100000107DA4501D100F03CF8AFF2090EBAE878
:100110000F0013F0010F18BFFB1A43F0010318473B
:10012000F823000018240000103A24BF78C878C1D2
:10013000FAD8520724BF30C830C144BF04680C60ED
:10014000704700000023002400250026103A28BF35
:1001500078C1FBD8520728BF30C148BF0B60704739
:10016000662902F07781002070471FB500F072FB0E
:1001700004000020002102F057F9E0601FBD10B517
:1001800010BD00F067FC1146FFF7EFFF02F01EF90B
:1001900000F085FC03B4FFF7F2FF03BC00F0C8FCDD
:1001A0000948804709480047FEE7FEE7FEE7FEE70B
:1001B000FEE7FEE7FEE7FEE7FEE7FEE70448054947
:1001C000054A064B70470000C5210008ED000008F5
:1001D000C0000020C0060020C0020020C002002095
:1001E0000FB41CB5074B06AA7B44694600900598DE
:1001F00000F017FB0020694600F026FB1CBC5DF8F0
:1002000014FB00005D0600002DE9F0474FF0000AE6
:1002100089460446C0F820A02046E16888470028A7
:1002200076D0252806D0D4E901219047206A401CC9
:100230002062F1E7E168204600268847C4F81CA048
:1002400005460027C4F818A02A2D09D0284602F038
:10025000B5F838B304EB8708303DC8F8185019E0FA
:1002600059F8041B204604EB87029161E168884736
:10027000012F054618D1E069002820DA26F0200673
:100280001DE0D8F8180000EB800005EB4000303886
:10029000C8F818002046E1688847054602F08EF845
:1002A0000028EED1012F0AD02E2D08D12046E1687A
:1002B00088477F1C0546022F46F02006C4DBA06954
:1002C000002803DA404246F00106A061F00701D0A1
:1002D00026F010066C2D0AD0682D08D04C2D39D090
:1002E0006A2D35D0742D35D07A2D33D016E0E168E3
:1002F0002F4620468847B84205460AD16C2F27D0A2
:100300004FF48060E168064320468847054605E0D3
:1003100027E06C2F1AD04FF4807006430DB3A5F17F
:100320004100192802D8203546F400664A4629467D
:10033000204626604E46FFF713FF80B101280BD000
:10034000F61D26F0070000F1080965E74020E4E704
:100350008020D7E70020D5E706F104095CE72846AE
:1003600061E7206ABDE8F08710B5431C02E010F891
:10037000011B71B18107FAD14FF0013202C88C1A0A
:100380008C4314EAC211F9D0C01A0A0603D0C01E69
:1003900010BDC01A10BD0A0401D0801E10BD090294
:1003A000FCD0401E10BD4FF0000200B5134694462D
:1003B0009646203922BFA0E80C50A0E80C50B1F1BD
:1003C0002001BFF4F7AF090728BFA0E80C5048BFD1
:1003D0000CC05DF804EB890028BF40F8042B08BF6F
:1003E000704748BF20F8022B11F0804F18BF00F86B
:1003F000012B704770477047704770472DE9FF4FDA
:100400000C461E464FF0FF378BB0D2E90001DDF8F5
:1004100060800A908A46C1F30A5505B93D4600211D
:1004200008464FF00000BAF1000F00F4400005DA72
:1004300000EB80004FF4400101EA50004FEA905970
:10044000B9F1010F00DDB9460A9850EA4A000ED012
:1004500044F61050A5F2FF3545432F14B8F1000FB4
:100460001ED07542291E1EDDC9F100021CE0B8F144
:10047000010F4FF0000001D0302103E0F24305E00E
:100480002154401CB042FBDB3046002200212154A5
:100490000B99C1F80880C1E900200FB0BDE8F08FCA
:1004A000BD1B6D1CDEE74A4600DA694206A800F073
:1004B0005BFA06AB93E8070003AB83E807005046FE
:1004C0000A9900F03CFB8DE80700A0F500501F38AA
:1004D00000900398002D0ADD42F21F014A460844AD
:1004E000002303A90390684600F0A5FD09E0A0F5EC
:1004F00000504A461F38002303A90390684600F0C5
:10050000AFFD8DE807000004000C03D04FF0FF3072
:10051000410800E01046B8F1000F03D0002200921D
:1005200015461EE0751E05D400F098F9303262556C
:100530006D1EF9D5B3460122084302D000227F1C6C
:1005400004E02078302801D100227F1E002A09977C
:1005500084D01DE0112D07DA00F080F930326255A9
:100560006D1C50EA0102F5D1084302D00098C8B1D1
:100570000EE00021681E05E0235C625C6354225497
:10058000401E491C8142F7DBAB46A81B401E099068
:10059000002004F80B000B98099AC0F80880C0E905
:1005A000002B7AE711264FF0000857E72DE9F04FAE
:1005B00088460446D21D22F0070191B0D1E900011E
:1005C000CDE90A0101F0C9FE02460B98C00F01D027
:1005D0002D2007E02068810701D52B2002E0202193
:1005E00001EAC000032A099001D0072A05DB03466F
:1005F0004146204600F078F90BE12078800601D5CD
:10060000E06900E00620B8F1650F814606D0B8F138
:10061000660F18D0B8F1670F70D131E00020B9F142
:10062000110F009001DB112301E009F101030AAA77
:1006300001A90CA8FFF7E2FEDDE90C70002609F124
:100640000105834647E001204B4600904FF00047EC
:100650000AAA01A90CA8FFF7D1FEDDE90DB00C999B
:100660005D46002610B909F101000D18B9EB05002F
:1006700003D4C0F1FF3609F10105A5EB09002BE019
:10068000B9F1010F01DA4FF001090020B9F1110FA2
:100690000090484601DD112300E003460AAA01A9A3
:1006A0000CA8FFF7ABFEDDE90C704D460026834633
:1006B000207800070AD4AB4500DA5D4601A8012D79
:1006C00004DD411911F8011C302907D04F4502DA29
:1006D00017F1040F04DA012082460FE06D1EEEE7E9
:1006E000002F02DCED1B3E4403E0781CA84200DD35
:1006F0007D1CB81B00F1010A4FF00047207800076D
:1007000003D4AA4501DB4FF0FF3A0021B7F1004FB7
:100710000DF143088DF8431024D002202B23002F25
:1007200001DA7F422D230A21021EA0F1010000DC24
:100730005FB197FBF1FC97FBF1F201FB1C7C1746C4
:100740000CF1300C08F801CDEEE7A8F101000370C0
:100750002188090501D5452100E06521A0F10108A6
:1007600000F8011C09980FA9A1EB0807FF1D00B1B3
:100770000120411901EBEA70A1693844081A401EB2
:10078000A0612078C00602D42046AFF3008009980B
:1007900028B1D4E901219047206A401C20622078CA
:1007A000C00622D52046AFF300801EE0002E04DBF9
:1007B000B34502DD01A8805D00E03020D4E90121CD
:1007C0009047206A401C2062761CAAF101005FEA73
:1007D000000A0AD100F03EF8C0680168405CD4E924
:1007E00001219047206A401C2062281EA5F10105C6
:1007F000DCDC07E0D4E9012118F8010B9047206AFE
:10080000401C2062381EA7F10107F3DC2046AFF33D
:100810000080032011B041E601694A1C026108789A
:10082000704700B58FB0CDE9013100210591054930
:100830007944CDE9031011466846FFF7E5FC0FB097
:1008400000BD0000E5FFFFFF0A6802F8010B0A6027
:1008500070470000004870478000002030B5B0F1BC
:100860000A024FEA900E71F100034EEA817EB0EB6E
:100870000E0061EB91014FEA101E4EEA017E10EB73
:100880000E0041EB11114FEA102E4EEA016E10EBF3
:100890000E0041EB11214FEA104E4EEA014E10EBD3
:1008A0000E0041EB1141401841F100014FEAD00028
:1008B00040EA41704FEAD10110EB80054FEA810414
:1008C00044EA907444EB01046D1944EB0404521B98
:1008D000A3414FF0000348BF0A3200D530BD401C91
:1008E00041F1000130BD00002DE9F0411F460446F2
:1008F00003260168072A01F4006004DB08B116A58D
:1009000005E016A503E008B115A500E015A521F046
:1009100010002060A069C01EA0610FB1401EA06140
:100920002046AFF300804FB1D4E90121384690470B
:10093000206A401C2062C01C206206E0206AFAE7A0
:10094000D4E9012115F8010B9047761EF8D2204614
:10095000AFF30080BDE8F0814E414E006E616E0045
:10096000494E4600696E66002DE9F04781461646FD
:100970008AB0354878440DC88DE80D003248784477
:10098000801C03AC0DC884E80D0041F69B30084480
:10099000372190FBF1F290FBF1F5A5F1800501FB09
:1009A00012041B3C02D56442012000E00020DFF865
:1009B00098A080460027FA44AAF1BE0A0EE0E0079C
:1009C0000AD03246684607EB470101230AEB810152
:1009D00000F046FB8DE8070064107F1C002CEED170
:1009E000194F7F44AE3F19E0E80715D007EB04101C
:1009F0000DF1180A90E80E008AE80E00C068F04277
:100A000001D1981908903246012306A903A800F0E5
:100A100027FB03AB83E807006D10641C002DE3D1B6
:100A20004FF0010332466946B8F1000F03A802D027
:100A300000F001FB01E000F013FBC9E90001C9F877
:100A400008200AB0BDE8F087881B00000048704706
:100A5000600000207546FFF7F9FFAE4605006946C5
:100A6000534620F00700854618B020B5FFF7A6FBD7
:100A7000BDE820404FF000064FF000074FF000089F
:100A80004FF0000B21F00701AC46ACE8C009ACE820
:100A9000C009ACE8C009ACE8C0098D46704710B584
:100AA0000446AFF300802046BDE81040FFF772BB5C
:100AB0004FF0013C50F8042B51F8043B9A4221D1ED
:100AC000A2EB0C03934313EACC1317D150F8042B79
:100AD00051F8043B9A4215D1A2EB0C03934313EA5D
:100AE000CC130BD150F8042B51F8043B9A4209D196
:100AF000A2EB0C03934313EACC13DBD04FF00000BE
:100B0000704700BFD01A01BAB1FA81F101F01801A3
:100B100022FA01F0CB40C1F12001DBB2C0B2C01A11
:100B20002CFA01F3D11A914311EAC311E6D17047AF
:100B300001491820ABBEFEE72600020070475FEABD
:100B4000400C08BF91F0000F4FEA8C234FEAC122FE
:100B500043EA51514FEA1C5018BF00F5F0404FEAEC
:100B6000300018BF41F000415FEA6C5C00F0298062
:100B7000BCF1FF3F08BF40F080407047130C06BF38
:100B800012044FF0100C4FF0000C130E04BF1202B1
:100B90000CF1080C130F04BF12010CF1040C930F9D
:100BA00004BF92000CF1020CD30F04BF52000CF1F1
:100BB000010C11464FF00002A0F11F00A0EB0C0049
:100BC000704711F0004F08BF704731F000413FF40B
:100BD000D5AF0B0C06BF09044FF0100C4FF0000C02
:100BE0000B0E04BF09020CF1080C0B0F04BF090126
:100BF0000CF1040C8B0F04BF89000CF1020CCB0F1D
:100C000004BF49000CF1010CCCF12003A0EB0C0057
:100C100022FA03F302FA0CF241EA030100F10100A7
:100C2000704720F07F4C80EA030023F07F47ACEB55
:100C3000070303F57C5300F0004003F1FF032DE9A7
:100C400080494FEA154B09B44FEA144325EA0B4E8D
:100C500024EA03480FF2042606EB132749083E78DE
:100C60005FEA320203FB0667C7F5000707FB06F6DB
:100C70004FEA54374FEAD64606F1020607FB066CE8
:100C8000CCF1005C4FEA1C472CEA074C07FB06F44A
:100C90000CFB06F504EB15464FEA961634BF002010
:100CA0004FF000404FEAD13706FB07FC4FEA1C4CDF
:100CB0000CFB0BF7D21B03FB0CF761EB07010CFBE2
:100CC0000EF7B0EB074072EB17420CFB08F734BF8E
:100CD000A2EB0742B2EB074261EB17414FEA0C442B
:100CE0004FEA910706FB07FC4FEA1C4C0CFB0BF785
:100CF000B0EBC74072EB573203FB0CF734BFA2EBEB
:100D0000C742B2EBC74261EB57310CFB0EF7B0EBB9
:100D1000C70072EB57720CFB08F734BFA2EBC70297
:100D2000B2EBC70261EB5771039F4FEA816141EA61
:100D3000921104EBCC044FEAD1374FEA826206FBF2
:100D400007FC42EA90124FEA80604FEA1C4C0CFB11
:100D50000BF7D21B03FB0CF761EB07010CFB0EF743
:100D6000B0EB074072EB17420CFB08F734BFA2EB65
:100D70000742B2EB074261EB17414FEA8C554FEA4D
:100D8000910704EB9C2406FB07FC4FEA1C4C0CFB70
:100D90000BF7B0EBC74072EB573203FB0CF734BFD5
:100DA000A2EBC742B2EBC74261EB57310CFB0EF727
:100DB000B0EBC70072EB57720CFB08F734BFA2EB25
:100DC000C702B2EBC70261EB577115EB4C254FEA36
:100DD000816141EA92114FEA82624FEAD13742EAD9
:100DE000901206FB07FC44F100044FEA80604FEAD2
:100DF0001C4C0CFB0BF7D21B03FB0CF761EB070140
:100E00000CFB0EF7B0EB074072EB17420CFB08F738
:100E100034BFA2EB0742B2EB074261EB174115EB7F
:100E20001C154FEA813141EA92414FEA823242EA8F
:100E300090424FEA80304FEA0C7644F1000448EAD1
:100E400003434EEA0B484FF0000EB2EB080C71EB77
:100E5000030724BF624639464EEB0E0E4FF0000BDF
:100E60000018524149414BEB0B0BB2EB080C71EBF4
:100E700003077BF1000B24BF624639464EEB0E0E92
:100E80004FF0000B0018524149414BEB0B0BB2EBFA
:100E9000080C71EB03077BF1000B24BF6246394657
:100EA0004EEB0E0E51EA020718BF46F0010616EB94
:100EB0000E7655F1000254F1000103D5BDE8890119
:100EC000BDE80088BDE88901BDE80048B619524177
:100ED00041EB0101A3F10103704780807F7E7D7C9F
:100EE0007B7A7978777676757473727171706F6EBC
:100EF0006E6D6C6C6B6A6A69686867666665646467
:100F0000636362616160605F5F5E5E5D5D5C5C5BF0
:100F10005B5A5A595958585757565655555554545F
:100F2000535352525251515050504F4F4F4E4E4DBD
:100F30004D4D4C4C4C4B4B4B4A4A4A494949484809
:100F40004847474747464646454545444444444349
:100F500043434342424242414141002B9C4630D4EC
:100F600077002BD01CB54FEA370703B44FF01000C1
:100F70004FF01001BAF1000F06D0BCF1000FDCBF3A
:100F800040F0080040F008014FF000000FBCBDE841
:100F900010400BF1010BBBF1010F08BF5FEA17070F
:100FA00022BF12F1010211F101014FF0004143F1A2
:100FB000000300F0004043EA00007047F9D35708EF
:100FC000D0E746EA064613F1400F4FEA16461FDD0A
:100FD00013F1200FDFBF16430A46002120335B4286
:100FE000BED0C3F1200746EA064602FA07F74FEAE9
:100FF000164646EA0706C3F1200722FA03F201FA71
:1010000007F721FA03F14FF0000342EA0702A7E7CE
:1010100046EA020646EA06464FEA164646EA010650
:10102000BCBF46EA0646360C4FF000034FF0000204
:101030004FF0000194E72DE9804C9A46934670B436
:1010400091E8380007C831EA400C48BF34EA430C45
:1010500003D5FFF7E6FDFFF780FFF0BCBDE8008C8D
:101060002DE9804C9A46934670B491E8380007C841
:1010700010F0804F08BF13F0804F03D100F005F847
:10108000FFF76BFFF0BCBDE8008C20F07F4780EAE3
:10109000030023F07F4C07EB0C03A3F57C5300F017
:1010A0000040A3F1FE0392F0000F00F0B38095F032
:1010B000000F00F077802DE901494FEA11404FEA17
:1010C000144621EA004800FB06FC24EA064708FB18
:1010D00006F607FB08F800FB07F718EB06484CEB91
:1010E000164C4FEA124B18EB07484FEA15464CEBEB
:1010F000174022EA0B4E0BFB06FC25EA06470EFBC7
:1011000006F607FB0EFE0BFB07F71EEB064E4CEB3D
:10111000164C4FF000061EEB074E4CEB174B18EB2E
:101120000B0840F1000018EB0E0B58EB000840F1E3
:1011300000008F1A4FF000013CBFC943661B14BF6B
:10114000B5EB040C00213CBFC943F61B4FEA174422
:101150004EEA8E0E27EA04454FEA1C4704FB07625D
:101160002CEA074C05FB07F70CFB05F604FB0CFC0F
:1011700016EB074642EB174216EB0C4642EB1C42BD
:101180001BEB060658EB0202414146EA9E0601D5DA
:10119000BDE80189B619524141EB0101A3F10103F8
:1011A000BDE801894FEA14454FEA114724EA054694
:1011B00021EA074C05FB07F406FB07F70CFB06F1D9
:1011C00005FB0CFC11EB074144EB17444FEA1247B7
:1011D00011EB0C4144EB1C4422EA074C05FB07F2DF
:1011E00006FB07F70CFB06F605FB0CFC16EB0746A7
:1011F00042EB174216EB0C4642EB1C456A1854F1C1
:10120000000148BF7047B619524141EB0101A3F1FB
:101210000103704795F0000F37D04FEA11424FEAB3
:10122000144721EA024624EA074C02FB07F106FBB9
:1012300007F70CFB06F402FB0CFC14EB074441EB34
:1012400017414FEA154714EB0C4441EB1C4125EACA
:10125000074C02FB07F506FB07F70CFB06F602FB43
:101260000CFC16EB074645EB174516EB0C4645EB19
:101270001C42121951F1000148BF7047B619524182
:1012800041EB0101A3F1010370474FEA14454FEA16
:10129000114724EA054621EA074C05FB07F106FB46
:1012A00007F70CFB06F24FF0000605FB0CFC12EBF7
:1012B000074241EB174112EB0C4251EB1C4148BF76
:1012C0007047921841EB0101A3F10103704700BF81
:1012D000FEE7704772B600BFFEE7000070B5044637
:1012E00000F0A6F906462546681C10B104480078AF
:1012F000054400BF00F09CF9801BA842FAD370BDE2
:10130000100000202DE9F8470346002294466EE1C4
:101310004FF0010808FA02F4D1F8008008EA04004E
:10132000A0427DD1DFF8DCA2D1F80480A8EB0A0945
:10133000D0453AD014DCB8F1030F50D009DCB8F135
:10134000000F31D0B8F1010F1CD0B8F1020F49D114
:1013500020E0B8F1110F18D0B8F1120F42D11EE001
:10136000B9F5881F25D006DCB9F5803F20D0B9F546
:10137000801F37D11AE0B9F5001F18D0B9F5041F46
:1013800030D117E0D1F80CC02DE0D1F80C8008F175
:10139000040C28E0D1F80C8008F1080C23E0D1F807
:1013A0000C8008F10C0C1EE000BF00BF00BF00BFA6
:1013B00000BF00BFD1F80880B8F1000F02D14FF094
:1013C000040C0BE0D1F80880B8F1010F03D14FF005
:1013D000080C1C6102E04FF0080C5C6103E04FF068
:1013E000000C00E000BF00BFFF2801D8984601E0D4
:1013F00003F104084646FF2802D84FEA820803E0BA
:10140000A2F108084FEA88084746D6F800804FF056
:101410000F0909FA07F928EA09080CFA07F900E0A8
:1014200088E048EA0908C6F80080D1F8048008F08E
:101430008058B8F1805F7DD100BFDFF8CC81D8F84B
:10144000188048F00108DFF8C091C9F81880C84634
:10145000D8F8188008F00108CDF8008000BF00BF60
:101460004FEAB9384FEA920958F829504FEA827882
:101470004FEA18794FF00F0808FA09F825EA08052D
:10148000DFF88881434502D14FF0000816E0DFF80D
:101490008081434502D14FF001080FE0DFF87481ED
:1014A000434502D14FF0020808E0DFF86C81434564
:1014B00002D14FF0030801E04FF004084FEA8279AF
:1014C0004FEA197908FA09F848EA0505DFF84C816E
:1014D0004FEA920948F82950D1F8048008F480189E
:1014E000B8F5801F0AD1DFF83881D8F8008048EAC3
:1014F0000008DFF82C91C9F8008009E0DFF82081AE
:10150000D8F8008028EA0008DFF81491C9F80080B4
:10151000D1F8048008F40018B8F5001F10D1DFF8E6
:10152000008108F10408D8F8008048EA0008DFF8D4
:10153000F09000E05AE009F10409C9F800800DE0DC
:10154000DFF8DC8008F10408D8F8008028EA0008F9
:10155000DFF8CC9009F10409C9F80080D1F80480C3
:1015600008F40038B8F5003F0ED1DFF8B480A8F1D8
:101570000408D8F8008048EA0008DFF8A490A9F130
:101580000409C9F800800DE0DFF89480A8F1040890
:10159000D8F8008028EA0008DFF88490A9F104094F
:1015A000C9F80080D1F8048008F48038B8F5803F8D
:1015B0000ED1DFF86C80A8F10808D8F8008048EA5E
:1015C0000008DFF85C90A9F10809C9F800800DE077
:1015D000DFF84C80A8F10808D8F8008028EA000855
:1015E000DFF83C90A9F10809C9F80080521CD1F835
:1015F000008028FA02F8B8F1000F7FF489AEBDE848
:10160000F88700000000111000100240000801409F
:10161000000C01400010014000140140080001408E
:10162000080401400AB1016101E00B040361704745
:101630000148006870470000080000200348006867
:1016400003490978084401490860704708000020F0
:101650001000002010B50848006840F0100006494E
:101660000860032000F098F80F2000F007F800F061
:101670002BF8002010BD00000020024070B5044689
:101680000E4800784FF47A71B1FBF0F00C4909680C
:10169000B1FBF0F5284600F0E9FB08B1012070BD70
:1016A000102C07D200222146501E00F037F80548C2
:1016B000046001E00120F2E70020F0E710000020C4
:1016C000140000200C00002008B500BF11488069FC
:1016D00040F001000F4988610846806900F0010070
:1016E000009000BF00BF00BF0846C06940F08050B6
:1016F000C8610846C06900F08050009000BF00BF7C
:1017000000BF0549486820F0E06040F00070486084
:1017100000BF08BD00100240000001402DE9F05F4D
:1017200080460D461646002700F02CFE0746394637
:101730002A46334601F00700C0F1070ABAF1040F48
:1017400002D94FF0040A01E0C0F1070AD14600F1C6
:10175000040ABAF1070F02D24FF0000A01E0A0F12B
:10176000030AD4464FF0010A0AFA09FAAAF1010A5B
:101770000AEA020A0AFA0CFA4FF0010B0BFA0CFB08
:10178000ABF1010B0BEA030B4AEA0B04214640467E
:1017900000F000FEBDE8F09F00BF00F00702064B1E
:1017A00019684FF6FF031940044B0B4343EA02212B
:1017B000014B196000BF70470CED00E00000FA0516
:1017C00070B504460D460CB9012070BD5A4800683A
:1017D00000F00700A8420ED25748006820F007002A
:1017E0002843554908600846006800F00700A842F1
:1017F00001D00120E9E7207800F0020002281DD185
:10180000207800F00400042805D14C48406840F4DA
:10181000E0604A494860207800F00800082805D1B7
:101820004648406840F46050444948604348406836
:1018300020F0F000A168084340494860207800F09B
:10184000010078B36068012806D13C48006800F4C4
:10185000003090B90120B8E76068022806D1374807
:10186000006800F0007040B90120AEE7334800681E
:1018700000F0020008B90120A7E73048406820F0D6
:101880000300616808432D494860FFF7D1FE064612
:1018900009E0FFF7CDFE801B41F28831884202D972
:1018A000032092E707E02548406800F00C006168DB
:1018B000B0EB810FEDD12048006800F00700A8428E
:1018C0000ED91D48006820F0070028431A49086017
:1018D0000846006800F00700A84201D0012074E724
:1018E000207800F00400042807D11448406820F450
:1018F000E060E168084311494860207800F0080082
:10190000082808D10D48406820F46050216940EA59
:10191000C1000A49486000F03FF808494968C1F32E
:101920000311074A515CC840064908600648006830
:10193000FFF7A4FE002048E700200240001002400C
:101940006A240008140000200C00002001480068F0
:10195000704700001400002000B5FFF7F7FF0449AE
:101960004968C1F30221034A515CC84000BD000030
:10197000001002407A24000800B5FFF7E7FF044991
:101980004968C1F3C221034A515CC84000BD000050
:10199000001002407A24000870B5002100220024C3
:1019A00000230020134D696801F00C05F5B1042DEA
:1019B00002D0082D19D101E00F4819E00F4DC1F3F5
:1019C0008346AB5D01F4803555B10A4D6D68C5F3B2
:1019D00040450B4E725D084D5D43B5FBF2F402E0ED
:1019E000084D03FB05F4204602E000BF024800BF9B
:1019F00000BF70BD0010024000127A005824000899
:101A00006824000800093D00F8B504460CB901201F
:101A1000F8BD207800F00100002878D0F848406830
:101A200000F00C0004280CD0F548406800F00C00D1
:101A3000082811D1F248406800F48030B0F5803FAA
:101A40000AD1EF48006800F4003000285FD06068D9
:101A500000285CD10120DBE700BF6068B0F5803F63
:101A600006D1E748006840F48030E549086028E086
:101A7000606858B9E248006820F48030E0490860A6
:101A80000846006820F4802008601AE06068B0F51D
:101A9000A02F0BD1DA48006840F48020D8490860B4
:101AA0000846006840F4803008600AE0D4480068C6
:101AB00020F48030D24908600846006820F4802075
:101AC000086000BF606888B1FFF7B2FD054606E018
:101AD000FFF7AEFD401B642801D9032098E7C848F2
:101AE000006800F400300028F2D010E0FFF7A0FDFD
:101AF000054606E0FFF79CFD401B642801D9032042
:101B000086E7BF48006800F400300028F2D1207852
:101B100000F00200022857D1B948406800F00C00DC
:101B200050B1B748406800F00C00082818D1B448FC
:101B3000406800F4803098B9B148006800F00200B5
:101B400020B12069012801D0012061E7AC4800687C
:101B500020F0F800616940EAC100A949086033E05B
:101B60002069E8B10120A7490860FFF761FD05463B
:101B700006E0FFF75DFD401B022801D9032047E77F
:101B80009F48006800F002000028F2D09C480068DE
:101B900020F0F800616940EAC1009949086013E04B
:101BA000002098490860FFF743FD054606E0FFF76F
:101BB0003FFD401B022801D9032029E79048006817
:101BC00000F002000028F2D1207800F00800082878
:101BD0002DD1A069B8B101208B490860FFF728FD1D
:101BE000054606E0FFF724FD401B022801D903202B
:101BF0000EE78348406A00F002000028F2D001207E
:101C000000F094FA13E000207F490860FFF710FD10
:101C1000054606E0FFF70CFD401B022801D9032012
:101C2000F6E67748406A00F002000028F2D12078FA
:101C300000F00400042873D100277148C06900F047
:101C4000805070B900BF6E48C06940F080506C4948
:101C5000C8610846C06900F08050009000BF00BF16
:101C600001276A48006800F48070B0B967480068CE
:101C700040F4807065490860FFF7DAFC054606E02D
:101C8000FFF7D6FC401B642801D90320C0E65F485B
:101C9000006800F480700028F2D000BFE0680128DE
:101CA00006D15748006A40F001005549086227E014
:101CB000E06858B95248006A20F0010050490862B3
:101CC0000846006A20F00400086219E0E068052870
:101CD0000BD14B48006A40F00400494908620846AD
:101CE000006A40F0010008620AE04548006A20F0FE
:101CF0000100434908620846006A20F004000862B7
:101D000000BFE068A0B1FFF793FC054609E0FFF7CC
:101D10008FFC401B41F28831884202D9032077E6CC
:101D200022E03748006A00F002000028EFD012E0FD
:101D3000FFF77EFC054608E0FFF77AFC401B41F206
:101D40008831884201D9032062E62D48006A00F0FC
:101D500002000028F0D1012F05D12948C06920F0E8
:101D600080502749C86100BFE069C8B32448406873
:101D700000F00C00082860D0E069022848D100205B
:101D800020490866FFF754FC054606E0FFF750FCC3
:101D9000401B022801D903203AE61948006800F0E8
:101DA00000700028F2D1206AB0F5803F07D11448B6
:101DB000406820F40030A168084311494860D4E924
:101DC000080108430E49496821F4741108430C497D
:101DD000486001200B490866FFF72AFC054607E02A
:101DE0003DE0FFF725FC401B022801D903200FE648
:101DF0000348006800F000700028F2D02FE00000D7
:101E00000010024000004242800442420070004044
:101E1000002014490866FFF70BFC054606E0FFF7B3
:101E200007FC401B022801D90320F1E50E48006899
:101E300000F000700028F2D111E0E069012800D123
:101E4000E6E50948466806F48031206A814204D1FB
:101E500006F47011606A814201D00120D8E50020AB
:101E6000D6E50000000042420010024070B5044672
:101E70002546681EB0F1807F01D301200FE0681E67
:101E80004FF0E02148610F214FF0FF3000F082FA5F
:101E900000204FF0E021886107200861002070BD1C
:101EA00010B504460CB9012010BDA06900B100E0D6
:101EB00000BF94F8410028B9002084F84000204673
:101EC00000F02AF8242084F841002068C06820F43B
:101ED00000502168C860204600F076F9206800694B
:101EE00020F49040216808612068406920F02A00B1
:101EF000216848612068C06840F400502168C860CB
:101F000000206064202084F8410084F84200002012
:101F1000606300BFC8E7000010B586B0044600202B
:101F200002900390049005901A49206888422ED1AF
:101F300000BF1948806940F480401749886108460D
:101F4000806900F48040019000BF00BF00BF0846D8
:101F5000806940F0040088610846806900F0040050
:101F6000019000BF00BF481502900220039003209B
:101F7000059002A90948FFF7C5F94FF48060029067
:101F800000200390049002A90448FFF7BBF906B0B3
:101F900010BD000000380140001002400008014060
:101FA0002DE9F84F04460E46174699464FF0000AB1
:101FB00094F8410020284AD106B117B90120BDE8A4
:101FC000F88F00206064212084F84100FFF730FB87
:101FD0008246A784E784A068B0F5805F04D12069B9
:101FE00010B90025B04602E035464FF000081BE06E
:101FF0005346002280212046CDF8009000F062F97F
:1020000008B10320DBE745B9B8F80000C0F30800C9
:102010002168486008F1020803E0287821684860D8
:102020006D1CE08C401EE084E08C0028E0D153461B
:10203000002240212046CDF8009000F043F908B17D
:102040000320BCE7202084F841000020B7E70220ED
:10205000B5E700BFFEE7000000B585B000200190A5
:1020600002900390049000BF1D48806940F010006A
:102070001B4988610846806900F01000009000BF8D
:1020800000BF00BF0846806940F020008861084614
:10209000806900F02000009000BF00BF00BF08462C
:1020A000806940F0040088610846806900F00400FF
:1020B000009000BF00BF012251030A48FFF7B2FAA7
:1020C0004FF4005001900120029000200390022064
:1020D000049001A90348FFF715F905B000BD000001
:1020E000001002400010014010B50B480B49086079
:1020F0004FF4E1304860002108488160C16001610F
:102100000C21416100218161C161FFF7C9FE08B165
:10211000FFF7E0F810BD0000003801401800002073
:1021200000BFFEE700BFFEE77047000008B50849A2
:102130000968C9084FF47A72B1FBF2F1414300918A
:1021400000BF00BF00994A1E00920029F9D108BDC6
:1021500014000020704710B5FFF770FA10BD00B5ED
:102160008FB0282105A8FEF71EF914216846FEF756
:102170001AF9012005900004069000200790012024
:10218000099002200C90C1030D914FF4E0110E91C3
:1021900005A8FFF739FC08B1FFF79CF80F20009065
:1021A00002200190002002904FF4806003900020F4
:1021B000049002216846FFF703FB08B1FFF78AF895
:1021C0000FB000BD7047000070B504462168096972
:1021D00021F44051E2681143226811612269A1682B
:1021E0001143626941EA02052168C96841F20C6243
:1021F000914329432268D1602168496921F44071E3
:10220000A2691143226851612D4A2168914202D18D
:10221000FFF7B2FB01E0FFF79FFB00EBC00101EB12
:10222000001162689200B1FBF2F100EBC00202EB18
:10223000001263689B00B2FBF3F26423B2FBF3F27B
:1022400002EBC20303EB0212A1EB8201322202EB8A
:1022500001116422B1FBF2F101F0F00100EBC002C8
:1022600002EB001263689B00B2FBF3F26423B2FB43
:10227000F3F201EB021200EBC00101EB0011636805
:102280009B00B1FBF3F100EBC00303EB00136668A6
:10229000B600B3FBF6F36426B3FBF6F303EBC30619
:1022A00006EB0313A1EB8301322303EB011164233B
:1022B000B1FBF3F101F00F0111442268916070BD90
:1022C000003801402DE9F04104460D461746984676
:1022D000069E34E0701C88B32EB1FFF7A9F9A0EB7D
:1022E0000800B0422BD900BF00BF21680C3151E873
:1022F000001F21F4D07021680C3141E80002002A4F
:10230000F3D100BF00BF00BF2168143151E8001FA6
:1023100021F001002168143141E80002002AF3D1C4
:1023200000BF202084F8410084F8420000BF002054
:1023300084F8400000BF0320BDE8F081FFE720687B
:1023400000682840A84201D1012000E00020B842E6
:10235000C0D00020F0E700BFFEE7490050EAC120EE
:1023600018BF04204A0D18BF40F0010040F2FF7270
:10237000B2EB515F08BF40F00200012808BF052002
:102380007047000002480068C0F302207047000058
:102390000CED00E010B5002804DB0A07130E054A17
:1023A000135406E00A07140E034A00F00F031B1F24
:1023B000D45410BD00E400E018ED00E030380A28E5
:1023C00001D20120704700207047000086B0FFF75F
:1023D00041F9FFF7C4FEFFF73FFEFFF785FE19E066
:1023E0000D480EA10CC801A8FDF7FAFE01A8FDF7E3
:1023F000BBFF054601A8FDF7B7FF84B24FF47A731F
:10240000224601A90748FFF7CBFD4FF47A70FEF78B
:1024100065FF00BFE4E7000000000020252E346CBB
:10242000660D0A001800002010B500290AD00878AF
:10243000002807D005487844FEF73AFB002801D071
:10244000002010BD0248784410BD000002010000C9
:10245000FA000000FEF7AAB80203040506070809FF
:102460000A0B0C0D0E0F10100102000000000000FE
:102470000000010203040607080900000000010231
:102480000304000002400000000000A00000000063
:1024900005400000000000C8000000000C400000E3
:1024A0000000409C00000000194000000020BCBE5D
:1024B0000000000034400000BFC91B8E0000000473
:1024C000B5400000504BCFD06607E2CF01000000BE
:1024D0006C4100003E8251AADFEEA73401000000EB
:1024E000D9420000DCB5A0E23A301F97FFFFFFFFA2
:1024F000B4450000FD25A0C8E9A3C14FFFFFFFFFC1
:10250000FF3F00000000008000000000FF3F0000CF
:10251000000000800000000054250008000000209A
:1025200018000000280100086C2500081800002091
:10253000A8060000440100081C0000004300000041
:10254000F8FFFFFF0C0000000E0000000F0000006D
:102550002E0000006F1283C0CA2109400000000055
:0C25600010000000010000000024F40046
:04000005080000ED02
:00000001FF
